{
  "contractName": "Doctor",
  "abi": [
    {
      "constant": false,
      "inputs": [
        {
          "name": "_add",
          "type": "address"
        }
      ],
      "name": "getBasicData",
      "outputs": [],
      "payable": false,
      "stateMutability": "nonpayable",
      "type": "function"
    },
    {
      "constant": false,
      "inputs": [
        {
          "name": "_add",
          "type": "address"
        }
      ],
      "name": "getRecords",
      "outputs": [],
      "payable": false,
      "stateMutability": "nonpayable",
      "type": "function"
    }
  ],
  "bytecode": "0x6060604052341561000f57600080fd5b60ec8061001d6000396000f3006060604052600436106049576000357c0100000000000000000000000000000000000000000000000000000000900463ffffffff1680635d9e2b4d14604e578063a0076e84146084575b600080fd5b3415605857600080fd5b6082600480803573ffffffffffffffffffffffffffffffffffffffff1690602001909190505060ba565b005b3415608e57600080fd5b60b8600480803573ffffffffffffffffffffffffffffffffffffffff1690602001909190505060bd565b005b50565b505600a165627a7a723058202b2e0b8a8c364aa20b9b794c1c0fbcb28c1bcda095c9a9bb5337548b2b7b89650029",
  "source": "pragma solidity ^0.4.17;\r\n\r\n\r\ncontract Patient {\r\n\r\n    address admin;\r\n    address[] public authorized;\r\n\r\n    struct Record {\r\n        string ofType;\r\n        string desc;\r\n    }\r\n\r\n    string[4] public information;\r\n    Record[] public records;\r\n\r\n    function addAdmin () {\r\n        require(admin == address(0));\r\n        admin = msg.sender;\r\n    }\r\n\r\n    function basicInfo (string _name, string _date, string _gen, string _nat) {\r\n        require(search() == 61);\r\n        information[0] = _name;\r\n        information[1] = _date;\r\n        information[2] = _gen;\r\n        information[3] = _nat;\r\n    }\r\n\r\n    function addRecord (string _ofType, string _desc) {\r\n        require(search() == 61);\r\n        records.push(Record(_ofType, _desc));\r\n    }\r\n\r\n    function returnRecord (uint _index) returns (string, string) {\r\n        require(search() == 61);\r\n        return (records[_index].ofType, records[_index].desc);\r\n    }\r\n\r\n    function addAuthorized (address _auth) {\r\n        require(search() == 45);\r\n        authorized.push(_auth);\r\n    }\r\n\r\n    function removeAuthorized (address _auth) {\r\n        require(search() == 45);\r\n        for (uint e = 0; e < authorized.length; e++) {\r\n            if (_auth == authorized[e]) {\r\n                delete authorized[e];\r\n            }\r\n        }\r\n    }\r\n\r\n    function search () public returns(uint ) {\r\n        for (uint i = 0; i < authorized.length; i++) {\r\n            if (msg.sender == authorized[i]) {\r\n                return 61;\r\n            }\r\n            if (msg.sender == admin) {\r\n                return 45;\r\n            } else {\r\n                return 12;\r\n            }\r\n        }\r\n    }\r\n}\r\n\r\n\r\ncontract Doctor {\r\n\r\n    address[] patients;\r\n\r\n    function getBasicData (address _add) {\r\n\r\n    }\r\n\r\n    function getRecords (address _add) {\r\n\r\n    }\r\n}\r\n",
  "sourcePath": "C:\\Users\\mahma\\OneDrive\\Documents\\GitHub\\BrokenCode\\contracts\\people.sol",
  "compiler": {
    "name": "solc",
    "version": "0.4.19+commit.c4cbbb05.Emscripten.clang"
  },
  "schemaVersion": "2.0.0",
  "updatedAt": "2018-03-18T02:49:10.696Z"
}