{
  "contractName": "Patient",
  "abi": [
    {
      "constant": true,
      "inputs": [
        {
          "name": "",
          "type": "uint256"
        }
      ],
      "name": "authorized",
      "outputs": [
        {
          "name": "",
          "type": "address"
        }
      ],
      "payable": false,
      "stateMutability": "view",
      "type": "function"
    },
    {
      "constant": true,
      "inputs": [
        {
          "name": "",
          "type": "uint256"
        }
      ],
      "name": "records",
      "outputs": [
        {
          "name": "ofType",
          "type": "string"
        },
        {
          "name": "desc",
          "type": "string"
        }
      ],
      "payable": false,
      "stateMutability": "view",
      "type": "function"
    },
    {
      "constant": false,
      "inputs": [
        {
          "name": "_name",
          "type": "string"
        },
        {
          "name": "_date",
          "type": "uint256"
        },
        {
          "name": "_gen",
          "type": "string"
        },
        {
          "name": "_nat",
          "type": "string"
        }
      ],
      "name": "basicInfo",
      "outputs": [],
      "payable": false,
      "stateMutability": "nonpayable",
      "type": "function"
    },
    {
      "constant": false,
      "inputs": [
        {
          "name": "_ofType",
          "type": "string"
        },
        {
          "name": "_desc",
          "type": "string"
        }
      ],
      "name": "addRecord",
      "outputs": [],
      "payable": false,
      "stateMutability": "nonpayable",
      "type": "function"
    },
    {
      "constant": false,
      "inputs": [
        {
          "name": "_auth",
          "type": "address"
        }
      ],
      "name": "addAuthorized",
      "outputs": [],
      "payable": false,
      "stateMutability": "nonpayable",
      "type": "function"
    },
    {
      "constant": false,
      "inputs": [
        {
          "name": "_auth",
          "type": "address"
        }
      ],
      "name": "removeAuthorized",
      "outputs": [],
      "payable": false,
      "stateMutability": "nonpayable",
      "type": "function"
    },
    {
      "constant": false,
      "inputs": [],
      "name": "search",
      "outputs": [
        {
          "name": "",
          "type": "uint256"
        }
      ],
      "payable": false,
      "stateMutability": "nonpayable",
      "type": "function"
    }
  ],
  "bytecode": "0x6060604052341561000f57600080fd5b610a018061001e6000396000f300606060405260043610610083576000357c0100000000000000000000000000000000000000000000000000000000900463ffffffff1680630d48669a14610088578063128a33ff146100eb57806334461067146101d7578063485d7d941461031957806389350daa14610352578063c95962481461037b578063cf1c316a1461041b575b600080fd5b341561009357600080fd5b6100a96004808035906020019091905050610454565b604051808273ffffffffffffffffffffffffffffffffffffffff1673ffffffffffffffffffffffffffffffffffffffff16815260200191505060405180910390f35b34156100f657600080fd5b6101d5600480803590602001908201803590602001908080601f0160208091040260200160405190810160405280939291908181526020018383808284378201915050505050509190803590602001909190803590602001908201803590602001908080601f0160208091040260200160405190810160405280939291908181526020018383808284378201915050505050509190803590602001908201803590602001908080601f01602080910402602001604051908101604052809392919081815260200183838082843782019150505050505091905050610493565b005b34156101e257600080fd5b6101f860048080359060200190919050506104dc565b6040518080602001806020018381038352858181546001816001161561010002031660029004815260200191508054600181600116156101000203166002900480156102855780601f1061025a57610100808354040283529160200191610285565b820191906000526020600020905b81548152906001019060200180831161026857829003601f168201915b50508381038252848181546001816001161561010002031660029004815260200191508054600181600116156101000203166002900480156103085780601f106102dd57610100808354040283529160200191610308565b820191906000526020600020905b8154815290600101906020018083116102eb57829003601f168201915b505094505050505060405180910390f35b341561032457600080fd5b610350600480803573ffffffffffffffffffffffffffffffffffffffff1690602001909190505061050d565b005b341561035d57600080fd5b6103656105f4565b6040518082815260200191505060405180910390f35b341561038657600080fd5b610419600480803590602001908201803590602001908080601f0160208091040260200160405190810160405280939291908181526020018383808284378201915050505050509190803590602001908201803590602001908080601f016020809104026020016040519081016040528093929190818152602001838380828437820191505050505050919050506106eb565b005b341561042657600080fd5b610452600480803573ffffffffffffffffffffffffffffffffffffffff16906020019091905050610780565b005b60018181548110151561046357fe5b90600052602060002090016000915054906101000a900473ffffffffffffffffffffffffffffffffffffffff1681565b61049b6107fc565b603d6104a56105f4565b1415156104b157600080fd5b6080604051908101604052808681526020018581526020018481526020018381525090505050505050565b6002818154811015156104eb57fe5b9060005260206000209060020201600091509050806000019080600101905082565b6000602d6105196105f4565b14151561052557600080fd5b600090505b6001805490508110156105f05760018181548110151561054657fe5b906000526020600020900160009054906101000a900473ffffffffffffffffffffffffffffffffffffffff1673ffffffffffffffffffffffffffffffffffffffff168273ffffffffffffffffffffffffffffffffffffffff1614156105e3576001818154811015156105b457fe5b906000526020600020900160006101000a81549073ffffffffffffffffffffffffffffffffffffffff02191690555b808060010191505061052a565b5050565b600080600090506001805490508110156106e65760018181548110151561061757fe5b906000526020600020900160009054906101000a900473ffffffffffffffffffffffffffffffffffffffff1673ffffffffffffffffffffffffffffffffffffffff163373ffffffffffffffffffffffffffffffffffffffff16141561067f57603d91506106e7565b6000809054906101000a900473ffffffffffffffffffffffffffffffffffffffff1673ffffffffffffffffffffffffffffffffffffffff163373ffffffffffffffffffffffffffffffffffffffff1614156106dd57602d91506106e7565b600c91506106e7565b5b5090565b603d6106f56105f4565b14151561070157600080fd5b600280548060010182816107159190610837565b916000526020600020906002020160006040805190810160405280868152602001858152509091909150600082015181600001908051906020019061075b929190610869565b506020820151816001019080519060200190610778929190610869565b505050505050565b602d61078a6105f4565b14151561079657600080fd5b600180548060010182816107aa91906108e9565b9160005260206000209001600083909190916101000a81548173ffffffffffffffffffffffffffffffffffffffff021916908373ffffffffffffffffffffffffffffffffffffffff1602179055505050565b608060405190810160405280610810610915565b815260200160008152602001610824610915565b8152602001610831610915565b81525090565b815481835581811511610864576002028160020283600052602060002091820191016108639190610929565b5b505050565b828054600181600116156101000203166002900490600052602060002090601f016020900481019282601f106108aa57805160ff19168380011785556108d8565b828001600101855582156108d8579182015b828111156108d75782518255916020019190600101906108bc565b5b5090506108e59190610968565b5090565b8154818355818115116109105781836000526020600020918201910161090f9190610968565b5b505050565b602060405190810160405280600081525090565b61096591905b808211156109615760008082016000610948919061098d565b600182016000610958919061098d565b5060020161092f565b5090565b90565b61098a91905b8082111561098657600081600090555060010161096e565b5090565b90565b50805460018160011615610100020316600290046000825580601f106109b357506109d2565b601f0160209004906000526020600020908101906109d19190610968565b5b505600a165627a7a723058208e77a79cb22536a1541e21d2b6930bee5e9a3656059850d0531fa2dbb8ecf1820029",
  "source": "pragma solidity ^0.4.17;\r\n\r\n\r\ncontract Patient {\r\n\r\n    address admin;\r\n    address[] public authorized;\r\n\r\n    struct Record {\r\n        string ofType;\r\n        string desc;\r\n    }\r\n\r\n    struct Information {\r\n        string name;\r\n        uint date;\r\n        string gen;\r\n        string _nat;\r\n    }\r\n\r\n    Record[] public records;\r\n\r\n    function basicInfo (string _name, uint _date, string _gen, string _nat) {\r\n        require(search() == 61);\r\n        Information memory info = Information(_name, _date, _gen, _nat);\r\n    }\r\n\r\n    function addRecord (string _ofType, string _desc) {\r\n        require(search() == 61);\r\n        records.push(Record(_ofType, _desc));\r\n    }\r\n\r\n    function addAuthorized (address _auth) {\r\n        require(search() == 45);\r\n        authorized.push(_auth);\r\n    }\r\n\r\n    function removeAuthorized (address _auth) {\r\n        require(search() == 45);\r\n        for (uint e = 0; e < authorized.length; e++) {\r\n            if (_auth == authorized[e]) {\r\n                delete authorized[e];\r\n            }\r\n        }\r\n    }\r\n\r\n    function search () public returns(uint ) {\r\n        for (uint i = 0; i < authorized.length; i++) {\r\n            if (msg.sender == authorized[i]) {\r\n                return 61;\r\n            }\r\n            if (msg.sender == admin) {\r\n                return 45;\r\n            } else {\r\n                return 12;\r\n            }\r\n        }\r\n    }\r\n}\r\n\r\n\r\ncontract Doctor {\r\n\r\n    address[] patients;\r\n\r\n    function getBasicData (address _add) {\r\n\r\n    }\r\n\r\n    function getRecords (address _add) {\r\n\r\n    }\r\n}\r\n",
  "sourcePath": "C:\\Users\\Macka\\Documents\\GitHub\\BrokenCode\\contracts\\people.sol",
  "compiler": {
    "name": "solc",
    "version": "0.4.19+commit.c4cbbb05.Emscripten.clang"
  },
  "schemaVersion": "2.0.0",
  "updatedAt": "2018-03-17T15:06:45.093Z"
}