{
  "contractName": "Patient",
  "abi": [
    {
      "constant": true,
      "inputs": [
        {
          "name": "",
          "type": "uint256"
        }
      ],
      "name": "authorized",
      "outputs": [
        {
          "name": "",
          "type": "address"
        }
      ],
      "payable": false,
      "stateMutability": "view",
      "type": "function"
    },
    {
      "constant": true,
      "inputs": [
        {
          "name": "",
          "type": "uint256"
        }
      ],
      "name": "records",
      "outputs": [
        {
          "name": "ofType",
          "type": "string"
        },
        {
          "name": "desc",
          "type": "string"
        }
      ],
      "payable": false,
      "stateMutability": "view",
      "type": "function"
    },
    {
      "constant": true,
      "inputs": [
        {
          "name": "",
          "type": "uint256"
        }
      ],
      "name": "information",
      "outputs": [
        {
          "name": "",
          "type": "string"
        }
      ],
      "payable": false,
      "stateMutability": "view",
      "type": "function"
    },
    {
      "constant": false,
      "inputs": [],
      "name": "addAdmin",
      "outputs": [],
      "payable": false,
      "stateMutability": "nonpayable",
      "type": "function"
    },
    {
      "constant": false,
      "inputs": [
        {
          "name": "_name",
          "type": "string"
        },
        {
          "name": "_date",
          "type": "string"
        },
        {
          "name": "_gen",
          "type": "string"
        },
        {
          "name": "_nat",
          "type": "string"
        }
      ],
      "name": "basicInfo",
      "outputs": [],
      "payable": false,
      "stateMutability": "nonpayable",
      "type": "function"
    },
    {
      "constant": false,
      "inputs": [
        {
          "name": "_ofType",
          "type": "string"
        },
        {
          "name": "_desc",
          "type": "string"
        }
      ],
      "name": "addRecord",
      "outputs": [],
      "payable": false,
      "stateMutability": "nonpayable",
      "type": "function"
    },
    {
      "constant": false,
      "inputs": [
        {
          "name": "_index",
          "type": "uint256"
        }
      ],
      "name": "returnRecord",
      "outputs": [
        {
          "name": "",
          "type": "string"
        },
        {
          "name": "",
          "type": "string"
        }
      ],
      "payable": false,
      "stateMutability": "nonpayable",
      "type": "function"
    },
    {
      "constant": false,
      "inputs": [
        {
          "name": "_auth",
          "type": "address"
        }
      ],
      "name": "addAuthorized",
      "outputs": [],
      "payable": false,
      "stateMutability": "nonpayable",
      "type": "function"
    },
    {
      "constant": false,
      "inputs": [
        {
          "name": "_auth",
          "type": "address"
        }
      ],
      "name": "removeAuthorized",
      "outputs": [],
      "payable": false,
      "stateMutability": "nonpayable",
      "type": "function"
    },
    {
      "constant": false,
      "inputs": [],
      "name": "search",
      "outputs": [
        {
          "name": "",
          "type": "uint256"
        }
      ],
      "payable": false,
      "stateMutability": "nonpayable",
      "type": "function"
    }
  ],
  "bytecode": "0x6060604052341561000f57600080fd5b610fbb8061001e6000396000f3006060604052600436106100a4576000357c0100000000000000000000000000000000000000000000000000000000900463ffffffff1680630d48669a146100a9578063344610671461010c578063485d7d941461024e5780636216dca8146102875780636d5aaf80146103ad578063883ecec1146103c257806389350daa146104ca5780638f86f255146104f3578063c95962481461058f578063cf1c316a1461062f575b600080fd5b34156100b457600080fd5b6100ca6004808035906020019091905050610668565b604051808273ffffffffffffffffffffffffffffffffffffffff1673ffffffffffffffffffffffffffffffffffffffff16815260200191505060405180910390f35b341561011757600080fd5b61012d60048080359060200190919050506106a7565b6040518080602001806020018381038352858181546001816001161561010002031660029004815260200191508054600181600116156101000203166002900480156101ba5780601f1061018f576101008083540402835291602001916101ba565b820191906000526020600020905b81548152906001019060200180831161019d57829003601f168201915b505083810382528481815460018160011615610100020316600290048152602001915080546001816001161561010002031660029004801561023d5780601f106102125761010080835404028352916020019161023d565b820191906000526020600020905b81548152906001019060200180831161022057829003601f168201915b505094505050505060405180910390f35b341561025957600080fd5b610285600480803573ffffffffffffffffffffffffffffffffffffffff169060200190919050506106d8565b005b341561029257600080fd5b6103ab600480803590602001908201803590602001908080601f0160208091040260200160405190810160405280939291908181526020018383808284378201915050505050509190803590602001908201803590602001908080601f0160208091040260200160405190810160405280939291908181526020018383808284378201915050505050509190803590602001908201803590602001908080601f0160208091040260200160405190810160405280939291908181526020018383808284378201915050505050509190803590602001908201803590602001908080601f016020809104026020016040519081016040528093929190818152602001838380828437820191505050505050919050506107bf565b005b34156103b857600080fd5b6103c0610872565b005b34156103cd57600080fd5b6103e36004808035906020019091905050610910565b604051808060200180602001838103835285818151815260200191508051906020019080838360005b8381101561042757808201518184015260208101905061040c565b50505050905090810190601f1680156104545780820380516001836020036101000a031916815260200191505b50838103825284818151815260200191508051906020019080838360005b8381101561048d578082015181840152602081019050610472565b50505050905090810190601f1680156104ba5780820380516001836020036101000a031916815260200191505b5094505050505060405180910390f35b34156104d557600080fd5b6104dd610ab7565b6040518082815260200191505060405180910390f35b34156104fe57600080fd5b6105146004808035906020019091905050610bae565b6040518080602001828103825283818151815260200191508051906020019080838360005b83811015610554578082015181840152602081019050610539565b50505050905090810190601f1680156105815780820380516001836020036101000a031916815260200191505b509250505060405180910390f35b341561059a57600080fd5b61062d600480803590602001908201803590602001908080601f0160208091040260200160405190810160405280939291908181526020018383808284378201915050505050509190803590602001908201803590602001908080601f01602080910402602001604051908101604052809392919081815260200183838082843782019150505050505091905050610c60565b005b341561063a57600080fd5b610666600480803573ffffffffffffffffffffffffffffffffffffffff16906020019091905050610cf5565b005b60018181548110151561067757fe5b90600052602060002090016000915054906101000a900473ffffffffffffffffffffffffffffffffffffffff1681565b6006818154811015156106b657fe5b9060005260206000209060020201600091509050806000019080600101905082565b6000602d6106e4610ab7565b1415156106f057600080fd5b600090505b6001805490508110156107bb5760018181548110151561071157fe5b906000526020600020900160009054906101000a900473ffffffffffffffffffffffffffffffffffffffff1673ffffffffffffffffffffffffffffffffffffffff168273ffffffffffffffffffffffffffffffffffffffff1614156107ae5760018181548110151561077f57fe5b906000526020600020900160006101000a81549073ffffffffffffffffffffffffffffffffffffffff02191690555b80806001019150506106f5565b5050565b603d6107c9610ab7565b1415156107d557600080fd5b83600260006004811015156107e657fe5b0190805190602001906107fa929190610d71565b50826002600160048110151561080c57fe5b019080519060200190610820929190610d71565b508160028060048110151561083157fe5b019080519060200190610845929190610d71565b50806002600360048110151561085757fe5b01908051906020019061086b929190610d71565b5050505050565b600073ffffffffffffffffffffffffffffffffffffffff166000809054906101000a900473ffffffffffffffffffffffffffffffffffffffff1673ffffffffffffffffffffffffffffffffffffffff161415156108ce57600080fd5b336000806101000a81548173ffffffffffffffffffffffffffffffffffffffff021916908373ffffffffffffffffffffffffffffffffffffffff160217905550565b610918610df1565b610920610df1565b603d61092a610ab7565b14151561093657600080fd5b60068381548110151561094557fe5b906000526020600020906002020160000160068481548110151561096557fe5b9060005260206000209060020201600101818054600181600116156101000203166002900480601f016020809104026020016040519081016040528092919081815260200182805460018160011615610100020316600290048015610a0b5780601f106109e057610100808354040283529160200191610a0b565b820191906000526020600020905b8154815290600101906020018083116109ee57829003601f168201915b50505050509150808054600181600116156101000203166002900480601f016020809104026020016040519081016040528092919081815260200182805460018160011615610100020316600290048015610aa75780601f10610a7c57610100808354040283529160200191610aa7565b820191906000526020600020905b815481529060010190602001808311610a8a57829003601f168201915b5050505050905091509150915091565b60008060009050600180549050811015610ba957600181815481101515610ada57fe5b906000526020600020900160009054906101000a900473ffffffffffffffffffffffffffffffffffffffff1673ffffffffffffffffffffffffffffffffffffffff163373ffffffffffffffffffffffffffffffffffffffff161415610b4257603d9150610baa565b6000809054906101000a900473ffffffffffffffffffffffffffffffffffffffff1673ffffffffffffffffffffffffffffffffffffffff163373ffffffffffffffffffffffffffffffffffffffff161415610ba057602d9150610baa565b600c9150610baa565b5b5090565b600281600481101515610bbd57fe5b016000915090508054600181600116156101000203166002900480601f016020809104026020016040519081016040528092919081815260200182805460018160011615610100020316600290048015610c585780601f10610c2d57610100808354040283529160200191610c58565b820191906000526020600020905b815481529060010190602001808311610c3b57829003601f168201915b505050505081565b603d610c6a610ab7565b141515610c7657600080fd5b60068054806001018281610c8a9190610e05565b9160005260206000209060020201600060408051908101604052808681526020018581525090919091506000820151816000019080519060200190610cd0929190610e37565b506020820151816001019080519060200190610ced929190610e37565b505050505050565b602d610cff610ab7565b141515610d0b57600080fd5b60018054806001018281610d1f9190610eb7565b9160005260206000209001600083909190916101000a81548173ffffffffffffffffffffffffffffffffffffffff021916908373ffffffffffffffffffffffffffffffffffffffff1602179055505050565b828054600181600116156101000203166002900490600052602060002090601f016020900481019282601f10610db257805160ff1916838001178555610de0565b82800160010185558215610de0579182015b82811115610ddf578251825591602001919060010190610dc4565b5b509050610ded9190610ee3565b5090565b602060405190810160405280600081525090565b815481835581811511610e3257600202816002028360005260206000209182019101610e319190610f08565b5b505050565b828054600181600116156101000203166002900490600052602060002090601f016020900481019282601f10610e7857805160ff1916838001178555610ea6565b82800160010185558215610ea6579182015b82811115610ea5578251825591602001919060010190610e8a565b5b509050610eb39190610ee3565b5090565b815481835581811511610ede57818360005260206000209182019101610edd9190610ee3565b5b505050565b610f0591905b80821115610f01576000816000905550600101610ee9565b5090565b90565b610f4491905b80821115610f405760008082016000610f279190610f47565b600182016000610f379190610f47565b50600201610f0e565b5090565b90565b50805460018160011615610100020316600290046000825580601f10610f6d5750610f8c565b601f016020900490600052602060002090810190610f8b9190610ee3565b5b505600a165627a7a7230582053b43ed8d472f30e4ee50c3e04b47113e99b19378c10795578d67b1d971ebc930029",
  "source": "pragma solidity ^0.4.17;\r\n\r\n\r\ncontract Patient {\r\n\r\n    address admin;\r\n    address[] public authorized;\r\n\r\n    struct Record {\r\n        string ofType;\r\n        string desc;\r\n    }\r\n\r\n    string[4] public information;\r\n    Record[] public records;\r\n\r\n    function addAdmin () {\r\n        require(admin == address(0));\r\n        admin = msg.sender;\r\n    }\r\n\r\n    function basicInfo (string _name, string _date, string _gen, string _nat) {\r\n        require(search() == 61);\r\n        information[0] = _name;\r\n        information[1] = _date;\r\n        information[2] = _gen;\r\n        information[3] = _nat;\r\n    }\r\n\r\n    function addRecord (string _ofType, string _desc) {\r\n        require(search() == 61);\r\n        records.push(Record(_ofType, _desc));\r\n    }\r\n\r\n    function returnRecord (uint _index) returns (string, string) {\r\n        require(search() == 61);\r\n        return (records[_index].ofType, records[_index].desc);\r\n    }\r\n\r\n    function addAuthorized (address _auth) {\r\n        require(search() == 45);\r\n        authorized.push(_auth);\r\n    }\r\n\r\n    function removeAuthorized (address _auth) {\r\n        require(search() == 45);\r\n        for (uint e = 0; e < authorized.length; e++) {\r\n            if (_auth == authorized[e]) {\r\n                delete authorized[e];\r\n            }\r\n        }\r\n    }\r\n\r\n    function search () public returns(uint ) {\r\n        for (uint i = 0; i < authorized.length; i++) {\r\n            if (msg.sender == authorized[i]) {\r\n                return 61;\r\n            }\r\n            if (msg.sender == admin) {\r\n                return 45;\r\n            } else {\r\n                return 12;\r\n            }\r\n        }\r\n    }\r\n}\r\n\r\n\r\ncontract Doctor {\r\n\r\n    address[] patients;\r\n\r\n    function getBasicData (address _add) {\r\n\r\n    }\r\n\r\n    function getRecords (address _add) {\r\n\r\n    }\r\n}\r\n",
  "sourcePath": "C:\\Users\\mahma\\OneDrive\\Documents\\GitHub\\BrokenCode\\contracts\\people.sol",
  "compiler": {
    "name": "solc",
    "version": "0.4.19+commit.c4cbbb05.Emscripten.clang"
  },
  "schemaVersion": "2.0.0",
  "updatedAt": "2018-03-18T02:49:10.698Z"
}